{
  "_format": "hh-sol-artifact-1",
  "contractName": "Democracy",
  "sourceName": "contracts/Democracy.sol",
  "abi": [
    {
      "inputs": [],
      "stateMutability": "nonpayable",
      "type": "constructor"
    },
    {
      "inputs": [
        {
          "internalType": "uint256",
          "name": "protestId",
          "type": "uint256"
        }
      ],
      "name": "addMe",
      "outputs": [],
      "stateMutability": "nonpayable",
      "type": "function"
    },
    {
      "inputs": [
        {
          "internalType": "uint256",
          "name": "politicianId",
          "type": "uint256"
        },
        {
          "internalType": "uint256",
          "name": "compindex",
          "type": "uint256"
        }
      ],
      "name": "getComplaintdes",
      "outputs": [
        {
          "internalType": "string",
          "name": "",
          "type": "string"
        }
      ],
      "stateMutability": "view",
      "type": "function"
    },
    {
      "inputs": [
        {
          "internalType": "uint256",
          "name": "politicianId",
          "type": "uint256"
        },
        {
          "internalType": "uint256",
          "name": "compindex",
          "type": "uint256"
        }
      ],
      "name": "getComplaintresp",
      "outputs": [
        {
          "internalType": "string",
          "name": "",
          "type": "string"
        }
      ],
      "stateMutability": "view",
      "type": "function"
    },
    {
      "inputs": [
        {
          "internalType": "uint256",
          "name": "politicianId",
          "type": "uint256"
        },
        {
          "internalType": "uint256",
          "name": "compindex",
          "type": "uint256"
        }
      ],
      "name": "getComplainttime",
      "outputs": [
        {
          "internalType": "string",
          "name": "",
          "type": "string"
        }
      ],
      "stateMutability": "view",
      "type": "function"
    },
    {
      "inputs": [
        {
          "internalType": "uint256",
          "name": "poli_num",
          "type": "uint256"
        }
      ],
      "name": "getcompno",
      "outputs": [
        {
          "internalType": "uint256",
          "name": "",
          "type": "uint256"
        }
      ],
      "stateMutability": "view",
      "type": "function"
    },
    {
      "inputs": [
        {
          "internalType": "uint256",
          "name": "poli_num",
          "type": "uint256"
        }
      ],
      "name": "getpoints",
      "outputs": [
        {
          "internalType": "uint256",
          "name": "",
          "type": "uint256"
        }
      ],
      "stateMutability": "view",
      "type": "function"
    },
    {
      "inputs": [
        {
          "internalType": "uint256",
          "name": "poli",
          "type": "uint256"
        },
        {
          "internalType": "string",
          "name": "resp",
          "type": "string"
        },
        {
          "internalType": "uint256",
          "name": "compid",
          "type": "uint256"
        }
      ],
      "name": "giveresp",
      "outputs": [],
      "stateMutability": "nonpayable",
      "type": "function"
    },
    {
      "inputs": [
        {
          "internalType": "uint256",
          "name": "protestid",
          "type": "uint256"
        }
      ],
      "name": "participants",
      "outputs": [
        {
          "internalType": "uint256",
          "name": "",
          "type": "uint256"
        }
      ],
      "stateMutability": "view",
      "type": "function"
    },
    {
      "inputs": [
        {
          "internalType": "uint256",
          "name": "",
          "type": "uint256"
        }
      ],
      "name": "politicians",
      "outputs": [
        {
          "internalType": "uint256",
          "name": "points",
          "type": "uint256"
        },
        {
          "internalType": "uint256",
          "name": "complaintCount",
          "type": "uint256"
        }
      ],
      "stateMutability": "view",
      "type": "function"
    },
    {
      "inputs": [
        {
          "internalType": "uint256",
          "name": "protestid",
          "type": "uint256"
        }
      ],
      "name": "prodate",
      "outputs": [
        {
          "internalType": "string",
          "name": "",
          "type": "string"
        }
      ],
      "stateMutability": "view",
      "type": "function"
    },
    {
      "inputs": [
        {
          "internalType": "uint256",
          "name": "protestid",
          "type": "uint256"
        }
      ],
      "name": "prodesc",
      "outputs": [
        {
          "internalType": "string",
          "name": "",
          "type": "string"
        }
      ],
      "stateMutability": "view",
      "type": "function"
    },
    {
      "inputs": [
        {
          "internalType": "uint256",
          "name": "protestid",
          "type": "uint256"
        }
      ],
      "name": "proloc",
      "outputs": [
        {
          "internalType": "string",
          "name": "",
          "type": "string"
        }
      ],
      "stateMutability": "view",
      "type": "function"
    },
    {
      "inputs": [
        {
          "internalType": "uint256",
          "name": "",
          "type": "uint256"
        }
      ],
      "name": "protests",
      "outputs": [
        {
          "internalType": "string",
          "name": "title",
          "type": "string"
        },
        {
          "internalType": "string",
          "name": "description",
          "type": "string"
        },
        {
          "internalType": "string",
          "name": "location",
          "type": "string"
        },
        {
          "internalType": "string",
          "name": "date",
          "type": "string"
        },
        {
          "internalType": "uint256",
          "name": "participants",
          "type": "uint256"
        }
      ],
      "stateMutability": "view",
      "type": "function"
    },
    {
      "inputs": [
        {
          "internalType": "uint256",
          "name": "protestid",
          "type": "uint256"
        }
      ],
      "name": "protitle",
      "outputs": [
        {
          "internalType": "string",
          "name": "",
          "type": "string"
        }
      ],
      "stateMutability": "view",
      "type": "function"
    },
    {
      "inputs": [
        {
          "internalType": "uint256",
          "name": "politicianId",
          "type": "uint256"
        },
        {
          "internalType": "string",
          "name": "description",
          "type": "string"
        },
        {
          "internalType": "string",
          "name": "times",
          "type": "string"
        }
      ],
      "name": "setComplaint",
      "outputs": [],
      "stateMutability": "payable",
      "type": "function"
    },
    {
      "inputs": [
        {
          "internalType": "string",
          "name": "title",
          "type": "string"
        },
        {
          "internalType": "string",
          "name": "description",
          "type": "string"
        },
        {
          "internalType": "string",
          "name": "location",
          "type": "string"
        },
        {
          "internalType": "string",
          "name": "date",
          "type": "string"
        }
      ],
      "name": "setProtest",
      "outputs": [],
      "stateMutability": "nonpayable",
      "type": "function"
    }
  ],
  "bytecode": "0x6080604052600060025534801561001557600080fd5b5061138860008060018152602001908152602001600020600001819055506000806000600281526020019081526020016000206001018190555061197b8061005e6000396000f3fe6080604052600436106100f35760003560e01c80636718e7f21161008a578063ccf2b3f411610059578063ccf2b3f41461038b578063e396c13f146103b4578063f4c7eb24146103f2578063f8802c0f1461042f576100f3565b80636718e7f2146102ab5780637adb21ed146102e8578063837f449914610325578063b6b69fb714610362576100f3565b806335bff2a8116100c657806335bff2a8146101d857806335c1d349146101f45780634429d99d146102315780635bc60cc01461026e576100f3565b80630c463c7a146100f857806321e67da9146101355780632b07d88614610172578063347fc639146101af575b600080fd5b34801561010457600080fd5b5061011f600480360381019061011a919061104e565b610470565b60405161012c919061108a565b60405180910390f35b34801561014157600080fd5b5061015c6004803603810190610157919061104e565b61048f565b604051610169919061108a565b60405180910390f35b34801561017e57600080fd5b506101996004803603810190610194919061104e565b6104ae565b6040516101a69190611135565b60405180910390f35b3480156101bb57600080fd5b506101d660048036038101906101d1919061104e565b610556565b005b6101f260048036038101906101ed919061128c565b610586565b005b34801561020057600080fd5b5061021b6004803603810190610216919061104e565b610700565b604051610228919061108a565b60405180910390f35b34801561023d57600080fd5b5061025860048036038101906102539190611317565b610720565b6040516102659190611135565b60405180910390f35b34801561027a57600080fd5b506102956004803603810190610290919061104e565b61082e565b6040516102a29190611135565b60405180910390f35b3480156102b757600080fd5b506102d260048036038101906102cd9190611317565b6108d6565b6040516102df9190611135565b60405180910390f35b3480156102f457600080fd5b5061030f600480360381019061030a919061104e565b6109e4565b60405161031c9190611135565b60405180910390f35b34801561033157600080fd5b5061034c6004803603810190610347919061104e565b610a8c565b6040516103599190611135565b60405180910390f35b34801561036e57600080fd5b5061038960048036038101906103849190611357565b610b34565b005b34801561039757600080fd5b506103b260048036038101906103ad91906113c6565b610bac565b005b3480156103c057600080fd5b506103db60048036038101906103d6919061104e565b610c7c565b6040516103e992919061149d565b60405180910390f35b3480156103fe57600080fd5b5061041960048036038101906104149190611317565b610ca0565b6040516104269190611135565b60405180910390f35b34801561043b57600080fd5b506104566004803603810190610451919061104e565b610dae565b6040516104679594939291906114c6565b60405180910390f35b6000806000838152602001908152602001600020600101549050919050565b6000806000838152602001908152602001600020600001549050919050565b60606001600083815260200190815260200160002060020180546104d190611564565b80601f01602080910402602001604051908101604052809291908181526020018280546104fd90611564565b801561054a5780601f1061051f5761010080835404028352916020019161054a565b820191906000526020600020905b81548152906001019060200180831161052d57829003601f168201915b50505050509050919050565b6001806000838152602001908152602001600020600401600082825461057c91906115c4565b9250508190555050565b600083116105c9576040517f08c379a00000000000000000000000000000000000000000000000000000000081526004016105c090611644565b60405180910390fd5b606460008085815260200190815260200160002060000160008282546105ef9190611664565b925050819055506001600080858152602001908152602001600020600101600082825461061c91906115c4565b92505081905550600060405180606001604052808481526020018381526020016040518060400160405280600d81526020017f6e6f7420726573706f6e64656400000000000000000000000000000000000000815250815250905060008085815260200190815260200160002060020181908060018154018082558091505060019003906000526020600020906003020160009091909190915060008201518160000190816106cb9190611844565b5060208201518160010190816106e19190611844565b5060408201518160020190816106f79190611844565b50505050505050565b600060016000838152602001908152602001600020600401549050919050565b606060008311610765576040517f08c379a000000000000000000000000000000000000000000000000000000000815260040161075c90611644565b60405180910390fd5b600080848152602001908152602001600020600201828154811061078c5761078b611916565b5b906000526020600020906003020160020180546107a890611564565b80601f01602080910402602001604051908101604052809291908181526020018280546107d490611564565b80156108215780601f106107f657610100808354040283529160200191610821565b820191906000526020600020905b81548152906001019060200180831161080457829003601f168201915b5050505050905092915050565b606060016000838152602001908152602001600020600301805461085190611564565b80601f016020809104026020016040519081016040528092919081815260200182805461087d90611564565b80156108ca5780601f1061089f576101008083540402835291602001916108ca565b820191906000526020600020905b8154815290600101906020018083116108ad57829003601f168201915b50505050509050919050565b60606000831161091b576040517f08c379a000000000000000000000000000000000000000000000000000000000815260040161091290611644565b60405180910390fd5b600080848152602001908152602001600020600201828154811061094257610941611916565b5b9060005260206000209060030201600101805461095e90611564565b80601f016020809104026020016040519081016040528092919081815260200182805461098a90611564565b80156109d75780601f106109ac576101008083540402835291602001916109d7565b820191906000526020600020905b8154815290600101906020018083116109ba57829003601f168201915b5050505050905092915050565b6060600160008381526020019081526020016000206001018054610a0790611564565b80601f0160208091040260200160405190810160405280929190818152602001828054610a3390611564565b8015610a805780601f10610a5557610100808354040283529160200191610a80565b820191906000526020600020905b815481529060010190602001808311610a6357829003601f168201915b50505050509050919050565b6060600160008381526020019081526020016000206000018054610aaf90611564565b80601f0160208091040260200160405190810160405280929190818152602001828054610adb90611564565b8015610b285780601f10610afd57610100808354040283529160200191610b28565b820191906000526020600020905b815481529060010190602001808311610b0b57829003601f168201915b50505050509050919050565b60326000808581526020019081526020016000206000016000828254610b5a91906115c4565b92505081905550816000808581526020019081526020016000206002018281548110610b8957610b88611916565b5b90600052602060002090600302016002019081610ba69190611844565b50505050565b6001600254610bbb91906115c4565b600281905550836001600060025481526020019081526020016000206000019081610be69190611844565b50826001600060025481526020019081526020016000206001019081610c0c9190611844565b50816001600060025481526020019081526020016000206002019081610c329190611844565b50806001600060025481526020019081526020016000206003019081610c589190611844565b50600180600060025481526020019081526020016000206004018190555050505050565b60006020528060005260406000206000915090508060000154908060010154905082565b606060008311610ce5576040517f08c379a0000000000000000000000000000000000000000000000000000000008152600401610cdc90611644565b60405180910390fd5b6000808481526020019081526020016000206002018281548110610d0c57610d0b611916565b5b90600052602060002090600302016000018054610d2890611564565b80601f0160208091040260200160405190810160405280929190818152602001828054610d5490611564565b8015610da15780601f10610d7657610100808354040283529160200191610da1565b820191906000526020600020905b815481529060010190602001808311610d8457829003601f168201915b5050505050905092915050565b6001602052806000526040600020600091509050806000018054610dd190611564565b80601f0160208091040260200160405190810160405280929190818152602001828054610dfd90611564565b8015610e4a5780601f10610e1f57610100808354040283529160200191610e4a565b820191906000526020600020905b815481529060010190602001808311610e2d57829003601f168201915b505050505090806001018054610e5f90611564565b80601f0160208091040260200160405190810160405280929190818152602001828054610e8b90611564565b8015610ed85780601f10610ead57610100808354040283529160200191610ed8565b820191906000526020600020905b815481529060010190602001808311610ebb57829003601f168201915b505050505090806002018054610eed90611564565b80601f0160208091040260200160405190810160405280929190818152602001828054610f1990611564565b8015610f665780601f10610f3b57610100808354040283529160200191610f66565b820191906000526020600020905b815481529060010190602001808311610f4957829003601f168201915b505050505090806003018054610f7b90611564565b80601f0160208091040260200160405190810160405280929190818152602001828054610fa790611564565b8015610ff45780601f10610fc957610100808354040283529160200191610ff4565b820191906000526020600020905b815481529060010190602001808311610fd757829003601f168201915b5050505050908060040154905085565b6000604051905090565b600080fd5b600080fd5b6000819050919050565b61102b81611018565b811461103657600080fd5b50565b60008135905061104881611022565b92915050565b6000602082840312156110645761106361100e565b5b600061107284828501611039565b91505092915050565b61108481611018565b82525050565b600060208201905061109f600083018461107b565b92915050565b600081519050919050565b600082825260208201905092915050565b60005b838110156110df5780820151818401526020810190506110c4565b60008484015250505050565b6000601f19601f8301169050919050565b6000611107826110a5565b61111181856110b0565b93506111218185602086016110c1565b61112a816110eb565b840191505092915050565b6000602082019050818103600083015261114f81846110fc565b905092915050565b600080fd5b600080fd5b7f4e487b7100000000000000000000000000000000000000000000000000000000600052604160045260246000fd5b611199826110eb565b810181811067ffffffffffffffff821117156111b8576111b7611161565b5b80604052505050565b60006111cb611004565b90506111d78282611190565b919050565b600067ffffffffffffffff8211156111f7576111f6611161565b5b611200826110eb565b9050602081019050919050565b82818337600083830152505050565b600061122f61122a846111dc565b6111c1565b90508281526020810184848401111561124b5761124a61115c565b5b61125684828561120d565b509392505050565b600082601f83011261127357611272611157565b5b813561128384826020860161121c565b91505092915050565b6000806000606084860312156112a5576112a461100e565b5b60006112b386828701611039565b935050602084013567ffffffffffffffff8111156112d4576112d3611013565b5b6112e08682870161125e565b925050604084013567ffffffffffffffff81111561130157611300611013565b5b61130d8682870161125e565b9150509250925092565b6000806040838503121561132e5761132d61100e565b5b600061133c85828601611039565b925050602061134d85828601611039565b9150509250929050565b6000806000606084860312156113705761136f61100e565b5b600061137e86828701611039565b935050602084013567ffffffffffffffff81111561139f5761139e611013565b5b6113ab8682870161125e565b92505060406113bc86828701611039565b9150509250925092565b600080600080608085870312156113e0576113df61100e565b5b600085013567ffffffffffffffff8111156113fe576113fd611013565b5b61140a8782880161125e565b945050602085013567ffffffffffffffff81111561142b5761142a611013565b5b6114378782880161125e565b935050604085013567ffffffffffffffff81111561145857611457611013565b5b6114648782880161125e565b925050606085013567ffffffffffffffff81111561148557611484611013565b5b6114918782880161125e565b91505092959194509250565b60006040820190506114b2600083018561107b565b6114bf602083018461107b565b9392505050565b600060a08201905081810360008301526114e081886110fc565b905081810360208301526114f481876110fc565b9050818103604083015261150881866110fc565b9050818103606083015261151c81856110fc565b905061152b608083018461107b565b9695505050505050565b7f4e487b7100000000000000000000000000000000000000000000000000000000600052602260045260246000fd5b6000600282049050600182168061157c57607f821691505b60208210810361158f5761158e611535565b5b50919050565b7f4e487b7100000000000000000000000000000000000000000000000000000000600052601160045260246000fd5b60006115cf82611018565b91506115da83611018565b92508282019050808211156115f2576115f1611595565b5b92915050565b7f496e76616c696420706f6c6974696369616e2049440000000000000000000000600082015250565b600061162e6015836110b0565b9150611639826115f8565b602082019050919050565b6000602082019050818103600083015261165d81611621565b9050919050565b600061166f82611018565b915061167a83611018565b925082820390508181111561169257611691611595565b5b92915050565b60008190508160005260206000209050919050565b60006020601f8301049050919050565b600082821b905092915050565b6000600883026116fa7fffffffffffffffffffffffffffffffffffffffffffffffffffffffffffffffff826116bd565b61170486836116bd565b95508019841693508086168417925050509392505050565b6000819050919050565b600061174161173c61173784611018565b61171c565b611018565b9050919050565b6000819050919050565b61175b83611726565b61176f61176782611748565b8484546116ca565b825550505050565b600090565b611784611777565b61178f818484611752565b505050565b5b818110156117b3576117a860008261177c565b600181019050611795565b5050565b601f8211156117f8576117c981611698565b6117d2846116ad565b810160208510156117e1578190505b6117f56117ed856116ad565b830182611794565b50505b505050565b600082821c905092915050565b600061181b600019846008026117fd565b1980831691505092915050565b6000611834838361180a565b9150826002028217905092915050565b61184d826110a5565b67ffffffffffffffff81111561186657611865611161565b5b6118708254611564565b61187b8282856117b7565b600060209050601f8311600181146118ae576000841561189c578287015190505b6118a68582611828565b86555061190e565b601f1984166118bc86611698565b60005b828110156118e4578489015182556001820191506020850194506020810190506118bf565b8683101561190157848901516118fd601f89168261180a565b8355505b6001600288020188555050505b505050505050565b7f4e487b7100000000000000000000000000000000000000000000000000000000600052603260045260246000fdfea2646970667358221220507ee024be2142c65ba15163f4aa5550e54b51c731de2f23d580feb6d161613b64736f6c63430008180033",
  "linkReferences": {},
  "deployedLinkReferences": {}
}